:020000000328D3
:100006008316860101308E0000308F008030C000DC
:1000160080300F064002031D12280E080A3C031CFE
:100026003828FF30831286000630CB001330CC0010
:10003600AD30CD00CD0B1D28CC0B1D28CB0B1D28BC
:100046000000000086010630CB001330CC00AD3036
:10005600CD00CD0B2C28CC0B2C28CB0B2C2800004C
:1000660000008E0A03198F0A092801308E0000301D
:100076008F008030C00080300F064002031D4528E7
:100086000E080A3C031C6B288312F03086000630EB
:10009600CB001330CC00AD30CD00CD0B5028CC0BAF
:1000A6005028CB0B50280000000086010630CB00FC
:1000B6001330CC00AD30CD00CD0B5F28CC0B5F28C4
:1000C600CB0B5F28000000008E0A03198F0A3C281C
:1000D60001308E0000308F008030C00080300F0667
:1000E6004002031D78280E080A3C031C9E28831232
:1000F6000F3086000630CB001330CC00AD30CD007B
:10010600CD0B8328CC0B8328CB0B83280000000063
:1001160086010630CB001330CC00AD30CD00CD0BC0
:100126009228CC0B9228CB0B9228000000008E0A56
:1001360003198F0A6F2801308E0000308F0080303F
:10014600C00080300F064002031DAB280E080A3C93
:10015600031CD1288312AA3086000630CB00133048
:10016600CC00AD30CD00CD0BB628CC0BB628CB0BD2
:10017600B6280000000086010630CB001330CC0004
:10018600AD30CD00CD0BC528CC0BC528CB0BC52873
:10019600000000008E0A03198F0AA22801308E0083
:1001A60000308F008030C00080300F064002031DF3
:1001B600DE280E080A3C031C0429831255308600EB
:1001C6000630CB001330CC00AD30CD00CD0BE92886
:1001D600CC0BE928CB0BE92800000000860106308D
:1001E600CB001330CC00AD30CD00CD0BF828CC0BB6
:1001F600F828CB0BF828000000008E0A03198F0A96
:04020600D5280429CA
:02400E00FA3F77
:00000001FF
